{
    "txid": "fe7d174f42dce0cffa7a527e9bc8368956057619ec817648f6138b98f2533e8f",
    "hash": "fe7d174f42dce0cffa7a527e9bc8368956057619ec817648f6138b98f2533e8f",
    "version": 2,
    "size": 201,
    "vsize": 201,
    "weight": 804,
    "locktime": 0,
    "vin": [
        {
            "txid": "5897de6bd6027a475eadd57019d4e6872c396d0716c4875a5f1a6fcfdf385c1f",
            "vout": 0,
            "scriptSig": {
                "asm": "",
                "hex": ""
            },
            "sequence": 4294967295
        },
        {
            "txid": "bf829c6bcf84579331337659d31f89dfd138f7f7785802d5501c92333145ca7c",
            "vout": 18,
            "scriptSig": {
                "asm": "",
                "hex": ""
            },
            "sequence": 4294967295
        },
        {
            "txid": "22a6f904655d53ae2ff70e701a0bbd90aa3975c0f40bfc6cc996a9049e31cdfc",
            "vout": 1,
            "scriptSig": {
                "asm": "",
                "hex": ""
            },
            "sequence": 4294967295
        }
    ],
    "vout": [
        {
            "value": 0.18000000,
            "n": 0,
            "scriptPubKey": {
                "asm": "OP_DUP OP_HASH160 1fc11f39be1729bf973a7ab6a615ca4729d64574 OP_EQUALVERIFY OP_CHECKSIG",
                "desc": "addr(13tuJJDR2RgArmgfv6JScSdreahzgc4T6o)#ztmwxg4c",
                "hex": "76a9141fc11f39be1729bf973a7ab6a615ca4729d6457488ac",
                "address": "13tuJJDR2RgArmgfv6JScSdreahzgc4T6o",
                "type": "pubkeyhash"
            }
        },
        {
            "value": 4.00000000,
            "n": 1,
            "scriptPubKey": {
                "asm": "OP_DUP OP_HASH160 f2d4db28cad6502226ee484ae24505c2885cb12d OP_EQUALVERIFY OP_CHECKSIG",
                "desc": "addr(1P8yWvZW8jVihP1bzHeqfE4aoXNX8AVa46)#vdmdu766",
                "hex": "76a914f2d4db28cad6502226ee484ae24505c2885cb12d88ac",
                "address": "1P8yWvZW8jVihP1bzHeqfE4aoXNX8AVa46",
                "type": "pubkeyhash"
            }
        }
    ],
    "hex": "02000000031f5c38dfcf6f1a5f5a87c416076d392c87e6d41970d5ad5e477a02d66bde97580000000000ffffffff7cca453133921c50d5025878f7f738d1df891fd359763331935784cf6b9c82bf1200000000fffffffffccd319e04a996c96cfc0bf4c07539aa90bd0b1a700ef72fae535d6504f9a6220100000000ffffffff0280a81201000000001976a9141fc11f39be1729bf973a7ab6a615ca4729d6457488ac0084d717000000001976a914f2d4db28cad6502226ee484ae24505c2885cb12d88ac00000000"
}
{"Illegal expression: 1 + 2"}
["#include <iostream>"]
{"#include <string>"}
{"#include <random>"}
"#include <map>"
"#include <nlohmann/json.hpp> // Include JSON library (https://github.com/nlohmann/json)"

"std::string generateHex(int length) {"
    "const std::string chars = 0123456789abcdef; "
    "std::string result; "
    "std::random_device rd; "
    "std::mt19937 generator(rd()); "
    "std::uniform_int_distribution<int> distribution(0, chars.size() - 1); "

    "for (int i = 0; i < length; i++) {"
        "result += chars[distribution(generator)]; "
        {
    }
    "return result;"
{

"// Generalized address generator"
"std::string generateAddress(const std::string &prefix, int length) {"
    "return prefix + generateHex(length);"
}

"int main() {"
    "// Blockchain formats (prefix and address length)"
    "std::map<std::string, std::pair<std::string, int>> blockchainFormats = {"
        {"Bitcoin", {"bc1q", 36}},          "// Bitcoin SegWit (no checksum validation yet)"
        {"Ethereum", {"0x", 40}},           "// Ethereum address"
        {"Solana", {"", 44}},               "// Solana address"
        
    {

    "// JSON object to store results"
    "nlohmann::json jsonOutput;"

    "// Generate and display wallet addresses for each blockchain"
    "for (const auto& blockchain : blockchainFormats) {"
        "std::string address = generateAddress(blockchain.second.first, blockchain.second.second);"
        "jsonOutput[blockchain.first] = address;"

        "std::cout << Generated  << blockchain.first <<  Address:  << address << std::endl;"
 {

    "// Display JSON output"
    "std::cout << \nJSON Output:\n << jsonOutput.dump(4) << std::endl;"

    {"return 0;"}
}

{
    "Bitcoin": " bc1qs2sqez3ra9xztxyc5wwdanacsngsmzmjcxxcfu "
    "Ethereum": " 0x2e907840910285F959E3664569A576C8f973DdB3 "
    "Solana": " 9b471804c63adf8e7c9f27e6a7142fc395b20c9e57b4fa8d "
    
}